{
  "_format": "hh-sol-artifact-1",
  "contractName": "AccessControl",
  "sourceName": "contracts/AccessControl.sol",
  "abi": [
    {
      "anonymous": false,
      "inputs": [
        {
          "indexed": false,
          "internalType": "string",
          "name": "ip",
          "type": "string"
        },
        {
          "indexed": false,
          "internalType": "uint256",
          "name": "timestamp",
          "type": "uint256"
        }
      ],
      "name": "IPBlocked",
      "type": "event"
    },
    {
      "anonymous": false,
      "inputs": [
        {
          "indexed": false,
          "internalType": "string",
          "name": "ip",
          "type": "string"
        }
      ],
      "name": "IPUnblocked",
      "type": "event"
    },
    {
      "inputs": [
        {
          "internalType": "string",
          "name": "ip",
          "type": "string"
        }
      ],
      "name": "addSuspiciousIP",
      "outputs": [],
      "stateMutability": "nonpayable",
      "type": "function"
    },
    {
      "inputs": [
        {
          "internalType": "string",
          "name": "",
          "type": "string"
        }
      ],
      "name": "ipLog",
      "outputs": [
        {
          "internalType": "uint256",
          "name": "timestamp",
          "type": "uint256"
        },
        {
          "internalType": "bool",
          "name": "blocked",
          "type": "bool"
        }
      ],
      "stateMutability": "view",
      "type": "function"
    },
    {
      "inputs": [
        {
          "internalType": "string",
          "name": "ip",
          "type": "string"
        }
      ],
      "name": "isBlocked",
      "outputs": [
        {
          "internalType": "bool",
          "name": "",
          "type": "bool"
        }
      ],
      "stateMutability": "view",
      "type": "function"
    },
    {
      "inputs": [
        {
          "internalType": "string",
          "name": "ip",
          "type": "string"
        }
      ],
      "name": "unblockIP",
      "outputs": [],
      "stateMutability": "nonpayable",
      "type": "function"
    }
  ],
  "bytecode": "0x608060405234801561001057600080fd5b50610697806100206000396000f3fe608060405234801561001057600080fd5b506004361061004c5760003560e01c806316da352c14610051578063903e19891461006d578063b5d06b081461009d578063cc19a7f8146100ce575b600080fd5b61006b60048036038101906100669190610419565b6100ea565b005b61008760048036038101906100829190610419565b610189565b604051610094919061047d565b60405180910390f35b6100b760048036038101906100b29190610419565b610205565b6040516100c59291906104b1565b60405180910390f35b6100e860048036038101906100e39190610419565b61024c565b005b604051806040016040528042815260200160011515815250600082604051610112919061054b565b90815260200160405180910390206000820151816000015560208201518160010160006101000a81548160ff0219169083151502179055509050507fe6ed94ebbec3962f93dc4aa3e8c7d045dddaeb639c53d951b882be9e92b787ed814260405161017e9291906105ac565b60405180910390a150565b60008060008360405161019c919061054b565b9081526020016040518091039020604051806040016040529081600082015481526020016001820160009054906101000a900460ff1615151515815250509050806020015180156101fd57506102588160000151426101fb919061060b565b105b915050919050565b6000818051602081018201805184825260208301602085012081835280955050505050506000915090508060000154908060010160009054906101000a900460ff16905082565b6000808260405161025d919061054b565b908152602001604051809103902060010160006101000a81548160ff0219169083151502179055507f7a7f5686e0c792a67094558db58f3668ebf7f1416c817f576f6eafd0492cf89f816040516102b4919061063f565b60405180910390a150565b6000604051905090565b600080fd5b600080fd5b600080fd5b600080fd5b6000601f19601f8301169050919050565b7f4e487b7100000000000000000000000000000000000000000000000000000000600052604160045260246000fd5b610326826102dd565b810181811067ffffffffffffffff82111715610345576103446102ee565b5b80604052505050565b60006103586102bf565b9050610364828261031d565b919050565b600067ffffffffffffffff821115610384576103836102ee565b5b61038d826102dd565b9050602081019050919050565b82818337600083830152505050565b60006103bc6103b784610369565b61034e565b9050828152602081018484840111156103d8576103d76102d8565b5b6103e384828561039a565b509392505050565b600082601f830112610400576103ff6102d3565b5b81356104108482602086016103a9565b91505092915050565b60006020828403121561042f5761042e6102c9565b5b600082013567ffffffffffffffff81111561044d5761044c6102ce565b5b610459848285016103eb565b91505092915050565b60008115159050919050565b61047781610462565b82525050565b6000602082019050610492600083018461046e565b92915050565b6000819050919050565b6104ab81610498565b82525050565b60006040820190506104c660008301856104a2565b6104d3602083018461046e565b9392505050565b600081519050919050565b600081905092915050565b60005b8381101561050e5780820151818401526020810190506104f3565b60008484015250505050565b6000610525826104da565b61052f81856104e5565b935061053f8185602086016104f0565b80840191505092915050565b6000610557828461051a565b915081905092915050565b600082825260208201905092915050565b600061057e826104da565b6105888185610562565b93506105988185602086016104f0565b6105a1816102dd565b840191505092915050565b600060408201905081810360008301526105c68185610573565b90506105d560208301846104a2565b9392505050565b7f4e487b7100000000000000000000000000000000000000000000000000000000600052601160045260246000fd5b600061061682610498565b915061062183610498565b9250828203905081811115610639576106386105dc565b5b92915050565b600060208201905081810360008301526106598184610573565b90509291505056fea26469706673582212204b684fa4dc21d3ec0ddd60a3ba7936990e4dbfb4ef4066dd510fb8c19918912064736f6c63430008140033",
  "linkReferences": {},
  "deployedLinkReferences": {}
}